:100000000C945A010C9477010C9477010C947701AD
:100010000C9477010C9477010C9477010C94770180
:100020000C9477010C9477010C9477010C94770170
:100030000C9477010C9477010C948C010C94E901D9
:100040000C9477010C9477010C9477010C94770150
:100050000C9477010C9477010C9477010C94770140
:100060000C9477010C9477010C9477010C94770130
:100070000C94D2010C9477010C94D0010C9477016C
:100080000C9477010C9477010C9477010C94770110
:100090000C9477010C9477010C9477010C94770100
:1000A0000C9477010C9477010C9477010C947701F0
:1000B0000C94770100C0C101C30302C2C60607C782
:1000C00005C5C404CC0C0DCD0FCFCE0E0ACACB0B88
:1000D000C90908C8D81819D91BDBDA1A1EDEDF1FB8
:1000E000DD1D1CDC14D4D515D71716D6D21213D3A8
:1000F00011D1D010F03031F133F3F23236F6F73758
:10010000F53534F43CFCFD3DFF3F3EFEFA3A3BFB47
:1001100039F9F83828E8E929EB2B2AEAEE2E2FEFF7
:100120002DEDEC2CE42425E527E7E62622E2E32367
:10013000E12120E0A06061A163A3A26266A6A76797
:10014000A56564A46CACAD6DAF6F6EAEAA6A6BAB07
:1001500069A9A86878B8B979BB7B7ABABE7E7FBF37
:100160007DBDBC7CB47475B577B7B67672B2B37327
:10017000B17170B0509091519353529296565797D7
:10018000559594549C5C5D9D5F9F9E5E5A9A9B5BC7
:1001900099595898884849894B8B8A4A4E8E8F4F77
:1001A0008D4D4C8C448485458747468682424383E7
:1001B0004181804000C1814001C0804101C0804137
:1001C00000C1814001C0804100C1814000C1814027
:1001D00001C0804101C0804100C1814000C1814017
:1001E00001C0804100C1814001C0804101C0804107
:1001F00000C1814001C0804100C1814000C18140F7
:1002000001C0804100C1814001C0804101C08041E6
:1002100000C1814000C1814001C0804101C08041D6
:1002200000C1814001C0804100C1814000C18140C6
:1002300001C0804101C0804100C1814000C18140B6
:1002400001C0804100C1814001C0804101C08041A6
:1002500000C1814000C1814001C0804101C0804196
:1002600000C1814001C0804100C1814000C1814086
:1002700001C0804100C1814001C0804101C0804176
:1002800000C1814001C0804100C1814000C1814066
:1002900001C0804101C0804100C1814000C1814056
:1002A00001C0804100C1814001C0804101C0804146
:1002B00000C1814011241FBECFEFD8E0DEBFCDBF0B
:1002C00013E0A0E0B1E0EAE6F4E002C005900D9290
:1002D000AA30B107D9F723E0AAE0B3E001C01D922C
:1002E000AF30B207E1F70E94F7010C9433020C948F
:1002F0000000DC018FEF9FEF615008F408952D910D
:10030000292730E0F901EC54FE4F94919827F90128
:10031000EC54FF4F8491F0CF1F920F920FB60F92C3
:1003200011248F939F93AF93BF9380910B03909170
:100330000C03A0910D03B0910E030796A11DB11DF2
:1003400080930B0390930C03A0930D03B0930E03C3
:1003500080910A039DE6980F9D3758F490930A0305
:10036000BF91AF919F918F910F900FBE0F901F90F3
:100370001895805180930A0380910B0390910C0390
:10038000A0910D03B0910E030196A11DB11D8093A4
:100390000B0390930C03A0930D03B0930E03E0CFD7
:1003A0002A9818950F9200905F000F92AF93BF9319
:1003B000A0910002B1E00090CE000D92A093000247
:1003C000A2E0A6BDBF91AF910F9000925F000F9089
:1003D00018950F9200905F000F921F9311E01093F9
:1003E00001021F910F9000925F000F901895F894F2
:1003F000229A82E084BD83E085BD84E080936E0014
:1004000016BC81E087BD95E198BD1092CD00809328
:10041000CC0088ED8093C9008EE08093CA00789468
:10042000559A5D98E0E0F3E05D98AFE9B1E011978F
:10043000F1F700C00000919188E090FF12C05D9A32
:100440009595AFE9B1E01197F1F700C00000815038
:10045000A1F75D9A8FE991E00197F1F700C00000E4
:0A046000E3CF5D98EDCFF894FFCFD5
:10046A000000000000000000000000000000000082
:10047A000000000000000000000000000000000072
:10048A000000000000000000000000000000000062
:10049A000000000000000000000000000000000052
:1004AA000000000000000000000000000000000042
:1004BA000000000000000000000000000000000032
:1004CA000000000000000000000000000000000022
:1004DA000000000000000000000000000000000012
:1004EA000000000000000000000000000000000002
:1004FA0000000000000000000000000000000000F2
:10050A0000000000000000000000000000000000E1
:10051A0000000000000000000000000000000000D1
:10052A0000000000000000000000000000000000C1
:10053A0000000000000000000000000000000000B1
:10054A0000000000000000000000000000000000A1
:10055A000000000000000000000000000000000091
:10056A000000000000000000000000000000000081
:10057A000000000000000000000000000000000071
:10058A000000000000000000000000000000000061
:10059A000000000000000000000000000000000051
:1005AA000000000000000000000000000000000041
:1005BA000000000000000000000000000000000031
:1005CA000000000000000000000000000000000021
:1005DA000000000000000000000000000000000011
:1005EA000000000000000000000000000000000001
:1005FA0000000000000000000000000000000000F1
:10060A0000000000000000000000000000000000E0
:10061A0000000000000000000000000000000000D0
:10062A0000000000000000000000000000000000C0
:10063A0000000000000000000000000000000000B0
:10064A0000000000000000000000000000000000A0
:10065A000000000000000000000000000000000090
:0A066A00746573742061767200005D
:00000001FF
